:0300000002056096
:0C056000787FE4F6D8FD75813B02043082
:1005430020202067456C656374726F6E005072657E
:0D05530073736564206B65792000256400DA
:0404DC007F017E001E
:1004E000E4FDFCC3ED9FEC9E5015E4FBFA0BBB0052
:0F04F000010ABA04F8BBFBF50DBD00010C80E456
:0104FF0022DA
:08056C00D2A31204DCC2A32299
:090500007F147E001204E07F303C
:10050900A907C2A21204DCE954F0F5A012056C1285
:0B05190004DCE9C454F0F5A002056CFE
:10052400A907D2A21204DCE954F04404F5A0120491
:0F053400E012056CE9C454F04404F5A002056C14
:100463001205001205007F047E001204E07F3212A1
:1004730005097F047E001204E07F281205097F2806
:0D0483001205097F0C1205097F060205090C
:1004B7008B288A29892AAB28AA29A92A12035F60CF
:1004C70013052AE52A7002052914F912035FFF12A2
:0504D700052480E22273
:100430007523111204637BFF7A0579431204B7C256
:10044000907F027E001204E0D290752201E523D352
:10045000952240EB309305AF221203ED05221205E1
:030460007480EABB
:08057400D2911204DCC29122B5
:0403ED008E248F25A6
:1003F100D2921204637F011205097BFF7A057950BD
:100401001204B77FC0120509752BFF752C05752DD8
:100411005D85242E85252F7B007A00792612005FC9
:0E0421007B007A0079261204B71204DCC29226
:01042F0022AA
:10035F00BB010689828A83E0225002E722BBFE029C
:09036F00E32289828A83E49322CF
:10000300E537242BF8E60537227828300702782BCA
:10001300E475F0011203B702035F2000EB7F2ED2D9
:10002300008018EF540F2490D43440D4FF30040BD5
:10003300EF24BFB41A0050032461FFE538600215B2
:1000430038053BE53B7002053A30070D7828E47527
:10005300F0011203B7EF0203A50204907403D20761
:100063008003E4C207F5378B288A29892AE4F53807
:10007300F53AF53BE53860077F2012003E80F575C1
:1000830039FFC201C200C202C203C205C206C208CE
:1000930012000CFF700D3007057F0012004FAF3BBD
:1000A300AE3A22B4255FC2D5C20412000CFF24D09D
:1000B300B40A00501A75F00A783830D50508B6FF2F
:1000C3000106C6A426F620D5047002D20380D924E3
:1000D300CFB41A00EF5004C2E5D20402024FD2019A
:1000E30080C6D20080C0D20280BCD2D580BAD205ED
:1000F30080B47F2012003E2002077401B53800400F
:10010300F1120003FF12003E020077D208D20680EC
:1001130095120003FB120003FA120003F94A4B7015
:100123000679207A037BFF20022EE538602A7E00C1
:100133008E8275830012037860060EEE653970F0C7
:10014300C2D5EBC0E0EAC0E0E9C0E0EE120296D00F
:10015300E0F9D0E0FAD0E0FB12035FFF60AAEBC046
:10016300E0EAC0E0E9C0E012003ED0E02401F9D0AB
:10017300E03400FAD0E0FBE5390460DCD539D980FE
:10018300877BFF7A027992D202809C791080027970
:1001930008C206C2088008D2D5790A8004790AC247
:1001A300D5E539047002F539E4FAFDFEFF120003C8
:1001B300FC7B08200113120003FD7B1030000A12A0
:1001C3000003FE120003FF7B20EC3382D592D5504F
:1001D30013C3E43000069FFFE49EFEE42001039D69
:1001E300FDE49CFCE4CBF8C201EC700CCFCECDCC8B
:1001F300E824F8F870F38017C3EF33FFEE33FEED16
:1002030033FDEC33FCEB33FB994002FB0FD8E9EBF6
:10021300300105F8D0E0C448B201C0E00AEC4D4E0D
:100223004F78207B0070C2EAB5390040BCC0E012B1
:100233000298D0F0D0E0200104C4C0E0C4B201C0F1
:10024300F0120027D0F0D5F0EB0200771203C701BC
:100253001453018E5800E54C00E14201924F019A7C
:0F02630044019A4900FA4301A0550184460184E1
:100272004501844703405000E92D00ED2E01102B6B
:1002820000F123010E2003292A00A94800000108D9
:100292003F3F3F00790AA2D5200314300509B91067
:1002A200020404B9080104A2D52006025001042068
:1002B20002689202B538005034C0E07F2030031942
:1002C2007F30A20272067205500F1202EFC202C202
:1002D20006C205C2087F30800F300503E9C0E01274
:1002E200003E300503D0E0F9D0E0B538CC30051738
:1002F2007F30B9100C12003E7F583004077F78809F
:1003020003B9080312003E3002057F2D02003E7F32
:10031200202008F87F2B2006F322920280CF286E3D
:10032200756C6C2900D2011200033001F8C2017809
:100332003830D50108F60200A92D50434958120061
:10034200032403B405004001E490033B9312002F01
:0D035200743A12002FD20375380402018E98
:10037800BB010CE58229F582E5833AF583E022503A
:1003880006E92582F8E622BBFE06E92582F8E22284
:0D039800E58229F582E5833AF583E493229E
:1003A500BB010689828A83F0225002F722BBFE0137
:0203B500F32231
:1003B700FAE6FB0808E6F925F0F618E6CA3AF62247
:1003C700D083D082F8E4937012740193700DA3A3C5
:1003D70093F8740193F5828883E4737402936860D9
:0603E700EFA3A3A380DFD9
:10049000EFB40A07740D12049B740A309811A899DE
:1004A000B8130CC2983098FDA899C298B811F630CC
:0704B00099FDC299F59922A4
:00000001FF
